:060000000C944B000C946F
:1000060000000C9400000C9400000C9400000C946A
:1000160000000C9400000C9400000C9400000C945A
:1000260000000C9400000C9400000C9400000C944A
:1000360000000C9400000C9485000C947B000C943A
:1000460000000C9400000C9400000C9400000C942A
:1000560000000C9400000C9400000C9400000C941A
:1000660000000C9400000C9400000C9400000C940A
:1000760000000C9400000C9400000C9400000C94FA
:1000860000000C9400000000010005008C00000038
:10009600F894EE27ECBBF1E0F5BFE5BFE0936C000A
:1000A6008DE0A2E0BB27ED938A95E9F780E090E129
:1000B600A0E0B1E0ED930197E9F7EEE8F0E0859175
:1000C6009591009761F0A591B59105901590BF01A6
:1000D600F00105900D920197E1F7FB01F0CF8BBF80
:1000E600EFEFEDBFE0E1EEBFC0E0D5E00C948A0093
:1000F600EA93EFB7EA93EBB3E529EBBBE991EFBFE0
:10010600E9911895EA93E0E0EBBBE99118952BD0BD
:10011600D09AD19AD29AE1E05E2EE0E0E1BF7894DF
:10012600E1B7E13048F0AAE0B0E00E940901E1B78A
:10013600E150E1BFEF5FF4CFE1B7EF3F48F4AAE04B
:10014600B0E00E940901E1B7EF5FE1BFE150F4CFF3
:10015600550CEFE05E22E8E0E51511F4E1E05E2ED5
:100166005BBADECFFFCFE0E0EABBEBBBE7BBE8BBA9
:10017600E4BBE5BBE1BBE2BBE2B9E3B9E0936100F6
:10018600E0936200E0936400E0936500E0BFE3BFA4
:10019600E2BFE1BFEFBDEEBDEDBDECBDE7BDE6BD27
:1001A600EBBDEABDE9BDE8BDE0937900E0937800D8
:1001B600E5BDE4BDE3BDE0938B00E0938A00E093E8
:1001C6008900E0938800E0938100E0938000E0934B
:1001D6008700E0938600E0938500E0938400E09337
:1001E6008300E0938200E7BFE0937D00E0936A001E
:1001F600EABFE9BFEAB9E0939A00E0E8E8B9E0E0CF
:10020600E0BDE6B9EDB9E09374000895109639F0B3
:1002160080EA9FE00197F1F7A8951197C9F708952D
:00000001FF
