:0A0000000C944C000C9400000C94CA
:10000A0000000C9400000C9400000C9400000C9466
:10001A0000000C9400000C9400000C9400000C9456
:10002A0000000C9400000C947F000C9400000C94C7
:10003A007C000C9400000C9400000C9400000C94BA
:10004A0000000C9400000C9400000C9400000C9426
:10005A0000000C9400000C9400000C9400000C9416
:10006A0000000C9400000C9400000C9400000C9406
:10007A0000000C9400000C9400000C9400000C94F6
:10008A00000000000000040004008C000000F89446
:10009A00EE27ECBBF1E0F5BFE5BFE0936C008DE025
:1000AA00A2E0BB27ED938A95E9F780E090E1A0E012
:1000BA00B1E0ED930197E9F7E0E9F0E085919591D8
:1000CA00009761F0A591B59105901590BF01F001D7
:1000DA0005900D920197E1F7FB01F0CF8BBFEFEF8F
:1000EA00EDBFE0E1EEBFC0E0D5E00C948400EA93F6
:1000FA00E1E002C0EA93E0E0EBBBE9911895EFEF8B
:10010A00F0E0F7BDE6BDFBBDEABDE1E0EABBE0E039
:10011A00EBBBE7BBE8BBE4BBE5BBE1BBE2BBE2B9D7
:10012A00E3B9E0936100E0936200E0936400E09336
:10013A006500E0BFE3BFE2BFE1BFE2E0EFBDEAE195
:10014A00EEBDE0E0EDBDECBDE7BDE6BDEBBDEABD51
:10015A00E9BDE8BDE0937900E0937800E5BDE4BD30
:10016A00E3BDE0938B00E0938A00E0938900E0937B
:10017A008800E0938100E0938000E0938700E09399
:10018A008600E0938500E0938400E0938300E09387
:10019A008200E4E1E7BFE0E0E0937D00E0936A00DB
:1001AA00EABFE9BFEAB9E0939A00E0E8E8B9E0E01B
:1001BA00E0BDE6B9EDB9E09374007894442455247F
:1001CA00EFEFF0E0F7BDE6BDEAEFF0E0E615F70580
:1001DA0014F466247724F30131963F017BBC6ABC90
:1001EA00AAE0B0E00E94FB00EFCFFFCF109639F0F3
:1001FA0080EA9FE00197F1F7A8951197C9F708954A
:00000001FF
