:0C0000000C944B000C9400000C940000C9
:10000C000C9400000C9400000C9400000C94000064
:10001C000C9400000C9400000C9400000C94000054
:10002C000C9400000C947E000C9483000C947B00C8
:10003C000C9400000C9400000C9400000C94000034
:10004C000C9400000C9400000C9400000C94000024
:10005C000C9400000C9484000C9400000C94000090
:10006C000C9400000C9400000C9400000C94000004
:10007C000C9400000C9400000C9400000C940000F4
:10008C00FFFF020004008C000000F894EE27ECBB8C
:10009C00F1E0F5BFE5BFE0936C008DE0A2E0BB277B
:1000AC00ED938A95E9F780E090E1A0E0B1E0ED9363
:1000BC000197E9F7EEE8F0E085919591009761F0F2
:1000CC00A591B59105901590BF01F00105900D9289
:1000DC000197E1F7FB01F0CF8BBFEFEFEDBFE0E154
:1000EC00EEBFC0E0D5E00C948500EA93E1E002C0DD
:1000FC00EA93E0E0EBBBE9911895189518951CD0A4
:10010C0075D07894EFEFFFEF4E165F0638F4A4EF3E
:10011C00B1E00E940401F20131960AC000240414DB
:10012C00050440F4A4EFB1E00E940401F201319700
:10013C002F015CD0E7CFFFCFE7E0EABBE0E0EBBB01
:10014C00E7BBE8BBE4BBE5BBE1BBE2BBE2B9E3B9AF
:10015C00E0936100E0936200E0936400E09365003B
:10016C00E0BFE3BFE2BFE1BFE3E0EFBDE4E1EEBD22
:10017C00E0E0EDBDECBDE7BDE6BDEBBDEABDE9BD24
:10018C00E8BDE0937900E0937800E5BDE4BDE3BD04
:10019C00E0938B00E0938A00E0938900E093880061
:1001AC00E0938100E0938000E0938700E093860069
:1001BC00E0938500E0938400E0938300E093820059
:1001CC00ECE1E7BFE1E0E0937D00E0E0E0936A0062
:1001DC00EABFE9BFEAB9E0939A00E0E8E8B9E0E0E9
:1001EC00E0BDE6B9EDB9E09374000895F201E0705A
:1001FC00EF2FF0E0EBBDE42DEABD0895109639F039
:10020C0080EA9FE00197F1F7A8951197C9F7089537
:00000001FF
