:0C0000000C9446000C9400000C940000CE
:10000C000C9400000C9400000C9400000C94000064
:10001C000C9400000C9400000C9400000C94000054
:10002C000C9400000C9400000C9400000C94000044
:10003C000C9400000C9400000C9400000C94000034
:10004C000C9400000C9400000C9400000C94000024
:10005C000C9400000C9400000C9400000C94000014
:10006C000C9400000C9400000C9400000C94000004
:10007C000C9400000C9400000C9400000C940000F4
:10008C00F894EE27ECBBF1E0F5BFE5BFE0936C0014
:10009C008DE0A2E0BB27ED938A95E9F780E090E133
:1000AC00A0E0B1E0ED930197E9F78BBFEFEFEDBF67
:1000BC00E0E1EEBFC0E0D5E00C94640016E0EFEF99
:1000CC00EABB1BBBA4E6B0E00E947400110F1160E8
:1000DC001F701F3009F416E0F4CFFFCF109639F0E3
:1000EC0080EA9FE00197F1F7A8951197C9F7089559
:00000001FF
