:100000000C944B000C9400000C9400000C94000025
:100010000C9400000C9400000C9400000C94000060
:100020000C9400000C9400000C9400000C94000050
:100030000C9400000C9400000C9400000C948500BB
:100040000C947B000C9400000C9400000C940000B5
:100050000C9400000C9400000C9400000C94000020
:100060000C9400000C9400000C9400000C94000010
:100070000C9400000C9400000C9400000C94000000
:100080000C9400000C9400000C940000000002008E
:1000900004008C000000F894EE27ECBBF1E0F5BF03
:1000A000E5BFE0936C008DE0A2E0BB27ED938A955D
:1000B000E9F780E090E1A0E0B1E0ED930197E9F786
:1000C000EEE8F0E085919591009761F0A591B591EA
:1000D00005901590BF01F00105900D920197E1F791
:1000E000FB01F0CF8BBFEFEFEDBFE0E1EEBFC0E073
:1000F000D5E00C949700EA93EFB7EA93EBB3E429C9
:10010000EBBBE991EFBFE9911895AA93EA93FA93B3
:10011000EFB7EA93EBB3AE2FF2010E943B01EA2363
:10012000EBBBE991EFBFF991E991A991189538D00E
:10013000D09AD19AD29AE1E0F0E02F014BBA7894AC
:10014000E1B7EF3FA0F4CB990AC081D019F4E1E008
:10015000F0E02F014BBAA4EFB1E00E943101A2E31D
:10016000B0E00E943101E1B7EF5FE1BFE9CFE1B755
:10017000E130A0F0CB990AC06AD019F4E1E0F0E0D8
:100180002F014BBAA4EFB1E00E943101A2E3B0E02D
:100190000E943101E1B7E150E1BFE9CFD1CFFFCFFC
:1001A000E0E0EABBEBBBE7BBE8BBE4BBE5BBE1BB24
:1001B000E2BBE2B9E3B9E0936100E0936200E0934F
:1001C0006400E0936500E0BFEAE4E3BFE0E0E2BF83
:1001D000E1BFEFBDEEBDEDBDECBDE7BDE6BDEBBDE6
:1001E000EABDE9BDE8BDE0937900E0937800E5BDA4
:1001F000E4BDE3BDE0938B00E0938A00E0938900C7
:10020000E0938800E0938100E0938000E093870012
:10021000E0938600E0938500E0938400E093830000
:10022000E0938200E3E0E7BFE0E0E0937D00E0934D
:100230006A00EABFE9BFEAB9E0939A00E0E8E8B9EA
:10024000E0E0E0BDE6B9EDB9E09374000895440C38
:10025000551CEFE04E225524E8E0F0E0E415F505EA
:100260000895109639F080EA9FE00197F1F7A8957C
:100270001197C9F70895EF2BE1E009F0E0E0089548
:00000001FF
