:060000000C944B000C946F
:1000060000000C9400000C9400000C9400000C946A
:1000160000000C9400000C9400000C9400000C945A
:1000260000000C9400000C9400000C9400000C944A
:1000360000000C9400000C947D000C947B000C9442
:1000460000000C9400000C9400000C9400000C942A
:100056007F000C9400000C9400000C9400000C949B
:1000660000000C9400000C9400000C9400000C940A
:1000760000000C9400000C9400000C9400000C94FA
:1000860000000C9400000000020004008C00000038
:10009600F894EE27ECBBF1E0F5BFE5BFE0936C000A
:1000A6008DE0A2E0BB27ED938A95E9F780E090E129
:1000B600A0E0B1E0ED930197E9F7EEE8F0E0859175
:1000C6009591009761F0A591B59105901590BF01A6
:1000D600F00105900D920197E1F7FB01F0CF8BBF80
:1000E600EFEFEDBFE0E1EEBFC0E0D5E00C94860097
:1000F600D8981895D89A18951A930A9304B115B1F9
:1001060009911991189500E010E025D0EFEFEABBB0
:10011600E0E0E7B9E7E8E6B9A5E0B0E00E9409014A
:100126007894A0E00ED08F010130E1E01E0714F0B4
:100136000FEF10E001BFA2E3B0E00E940901F1CF8A
:10014600FFCFAA93E881E7B9369A349BFECFE4B194
:10015600F5B121960895E1E0EABBE0E0EBBBE7BB31
:10016600E8BBE4BBE5BBE1BBE2BBE2B9E3B9E093C4
:100176006100E0936200E0936400E0936500E0BFF5
:10018600EAE4E3BFE0E0E2BFE1BFEFBDEEBDEDBDF7
:10019600ECBDE7BDE6BDEBBDEABDE9BDE8BDE0935C
:1001A6007900E0937800E5BDE4BDE3BDE0938B0004
:1001B600E0938A00E0938900E0938800E093810051
:1001C600E0938000E0938700E0938600E09385004B
:1001D600E0938400E0938300E0938200E3E0E7BFCE
:1001E600E0E0E0937D00E0936A00EABFE9BFEAB988
:1001F600E0939A00E0E8E8B9E0E2E7B9ECE8E6B9AE
:10020600E0E0E0BDEDB9E09374000895109639F092
:1002160080EA9FE00197F1F7A8951197C9F708952D
:00000001FF
