:020000000C945E
:100002004B000C9400000C9400000C9400000C9423
:1000120000000C9400000C9400000C9400000C945E
:1000220000000C9400000C9400000C9400000C944E
:1000320000000C9400000C9400000C9485000C94B9
:100042007B000C9400000C9400000C9400000C94B3
:1000520000000C9400000C9400000C9400000C941E
:1000620000000C9400000C9400000C9400000C940E
:1000720000000C9400000C9400000C9400000C94FE
:1000820000000C9400000C94000001000100050027
:100092008C000000F894EE27ECBBF1E0F5BFE5BF61
:1000A200E0936C008DE0A2E0BB27ED938A95E9F71F
:1000B20080E090E1A0E0B1E0ED930197E9F7EEE88E
:1000C200F0E085919591009761F0A591B591059029
:1000D2001590BF01F00105900D920197E1F7FB0128
:1000E200F0CF8BBFEFEFEDBFE0E1EEBFC0E0D5E0B8
:1000F2000C949500EA93EFB7EA93EBB3E529EBBBD7
:10010200E991EFBFE9911895AA93EA93EFB7EA93C1
:10011200EBB3AE2FE52D0E94B401EA23EBBBE991CC
:10012200EFBFE991A99118952697E0E0E883E9836A
:10013200EA83EB83EC83ED8300E010E020E030E023
:1001420040E050E0AAD0EFEFE1BF5BBA7894CB99E0
:100152000DC0E1E0F0E0E017F10719F400E010E073
:1001620004C001E010E020E030E0EFD0CC990DC0F7
:10017200E1E0F0E0E217F30719F420E030E004C018
:1001820000E010E021E030E0E0D0CD990BC0E1E0EA
:10019200F0E0E417F50719F440E050E002C041E056
:1001A20050E0D3D0E1E0F0E0E017F107B9F4EFEF6F
:1001B200E1BFA881B981119719F4EBB3EBBB0DC074
:1001C200E881F981309749F4E8E05E1608F0552499
:1001D2005394EBB3E529EBBBB8D04FC0E1E0F0E0BC
:1001E200E217F30709F041C0A881B981119719F408
:1001F200E1B7E1BF39C0E881F9813097A9F5EC8117
:10020200FD81309739F4E0E0E1BFE1E0F0E0EC831A
:10021200FD835E2EEA81FB81309729F4E1B7EF5F1F
:10022200E1BFE15004C0E1B7E150E1BFEF5FAAE0F6
:10023200B0E00E94AA01E1B7EF3F21F4E1E0F0E073
:10024200EA83FB83E1B7E03079F4E0E0EA83EB8311
:10025200550CEFE05E22E8E0E51511F4E1E05E2ED8
:10026200EBB3E529EBBBEBBB08C0002E012A19F06A
:10027200022E032A11F441E050E0042E052A21F453
:10028200E0E0E883E98307C0E1E0F0E0E417F50786
:1002920011F4E883F9835BCFFFCFE7E0EABBE0E04C
:1002A200EBBBE7BBE8BBE4BBE5BBE1BBE2BBE2B94E
:1002B200E3B9E0936100E0936200E0936400E093AD
:1002C2006500E0BFEAE4E3BFE0E0E2BFE1BFEFBD0B
:1002D200EEBDEDBDECBDE7BDE6BDEBBDEABDE9BDE2
:1002E200E8BDE0937900E0937800E5BDE4BDE3BDAD
:1002F200E0938B00E0938A00E0938900E09388000A
:10030200E0938100E0938000E0938700E093860011
:10031200E0938500E0938400E0938300E093820001
:10032200E3E0E7BFE0E0E0937D00E0936A00EABF2C
:10033200E9BFEAB9E0939A00E0E8E8B9E0E0E0BD9D
:10034200E6B9EDB9E09374000895A4EFB1E00C941E
:10035200AA01109639F080EA9FE00197F1F7A8957B
:100362001197C9F70895EE23E1E009F0EE27089509
:00000001FF
