:080000000C9458000C94000060
:100008000C9400000C9400000C9400000C94000068
:100018000C9400000C9400000C9400000C94000058
:100028000C9400000C9400000C9400000C94000048
:100038000C9400000C9400000C9400000C94000038
:100048000C9400000C9400000C9400000C94000028
:100058000C9400000C9400000C9400000C94000018
:100068000C9400000C9400000C9400000C94000008
:100078000C9400000C9400000C9400000C940000F8
:100088000C9400001027E80364000A000100001027
:1000980000011000010048656C6C6F21000080C0F1
:1000A80002000005A6000000F894EE27ECBBF1E082
:1000B800F5BFE5BFE0936C008DE0A2E0BB27ED93B0
:1000C8008A95E9F780E090E1A0E0B1E0ED9301972F
:1000D800E9F7E8EAF0E085919591009761F0A5913C
:1000E800B59105901590BF01F00105900D9201970B
:1000F800E1F7FB01F0CF8BBFEFEFEDBFE0E1EEBF23
:10010800C0E0D5E00C9488000E941A01E0E0EA9370
:10011800A0E00E940D01AEE9B0E00E943B01E0E0E2
:10012800EABBEBBBE7BBE8BBE4BBE5BBEFEFE1BB7E
:10013800E0E0E2BBE2B9E3B9E0936100E09362007A
:10014800E0936400E0936500E0BFE3BFE2BFE1BF76
:10015800EFBDEEBDEDBDECBDE7BDE6BDEBBDEABD57
:10016800E9BDE8BDE0937900E0937800E5BDE4BD22
:10017800E3BDE0938B00E0938A00E0938900E0936D
:100188008800E0938100E0938000E0938700E0938B
:100198008600E0938500E0938400E0938300E09379
:1001A8008200E7BFE0937D00E0936A00EABFE9BF01
:1001B800EAB9E0939A00E0E8E8B9E0E0E0BDE6B922
:1001C800EDB9E0937400A8E00E944E01FFCFFFCF85
:1001D800AA93E2B3EF70AE2FE881E07FEA2BE2BB8F
:1001E8008BE18A95F1F7929A8BE18A95F1F79298CB
:1001F8008BE18A95F1F77AC0AA93A881E9DFE881B3
:10020800E295E883A881E4DF88EC90E00197F1F7B4
:100218006DC0AA93E881F0E0E050FB4FE081A9812E
:10022800AE0FEADF5980488022960895A2E00E9426
:100238007C01ACE0E1DFA1E00E947C01E0E04E2E11
:100248005E2E0895AA93A881AA3011F0571448F099
:10025800E0E0EA934394A42DDCDFA881AA3009F4F6
:1002680045C05394909AA881C7DF90983FC0BA932D
:10027800AA931A93E981FA813196E983FA8331972F
:10028800E4911E2FE03019F0A12FDCDFF3CF1881A5
:1002980023960895AA93E1B3E06FE1BB8A9A889AFE
:1002A800899A9298909891987880E881E058E0939C
:1002B8000205E881E054E0930305A4E1B0E00E9460
:1002C8008A010E9482010E9482010E948201A0E2AA
:1002D8007FDF80E991E00197F1F7A8E28DDFA4E0E4
:1002E8008BDFA5E889DFA6E087DFA0DF21960895E8
:1002F8000E940001A3E0B0E00C948A01A0E30E94F0
:10030800EC0080E991E00197F1F70895109639F033
:1003180080EA9FE00197F1F7A8951197C9F708952A
:00000001FF
