:100000000C9446000C9400000C9400000C9400002A
:100010000C9400000C9400000C9400000C94000060
:100020000C9400000C9400000C9400000C94000050
:100030000C9400000C9400000C9400000C946700D9
:100040000C9464000C9400000C9400000C940000CC
:100050000C9400000C9400000C9400000C94000020
:100060000C9400000C9400000C9400000C94000010
:100070000C9400000C9400000C9400000C94000000
:100080000C9400000C9400000C940000F894EE27EF
:10009000ECBBF1E0F5BFE5BFE0936C008DE0A2E0C2
:1000A000BB27ED938A95E9F780E090E1A0E0B1E00D
:1000B000ED930197E9F78BBFEFEFEDBFE0E1EEBF06
:1000C000C0E0D5E00C946C00EA93E1E002C0EA9352
:1000D000E0E0EBBBE9911895E7E0EABBEBBBE0E0C1
:1000E000E7BBE8BBE4BBE5BBE1BBE2BBE2B9E3B91C
:1000F000E0936100E0936200E0936400E0936500A8
:10010000E0BFEAE4E3BFE0E0E2BFE1BFEFBDEEBD88
:10011000EDBDECBDE7BDE6BDEBBDEABDE9BDE8BDAB
:10012000E0937900E0937800E5BDE4BDE3BDE093A2
:100130008B00E0938A00E0938900E0938800E093CD
:100140008100E0938000E0938700E0938600E093D5
:100150008500E0938400E0938300E0938200E3E075
:10016000E7BFE0E0E0937D00E0936A00EABFE9BF0B
:10017000EAB9E0939A00E0E8E8B9E0E0E0BDE6B96A
:10018000EDB9E09374007894E1B7EF3F48F4AAE04A
:10019000B0E00E94DE00E1B7EF5FE1BFE150F4CFD5
:1001A000E1B7E13048F0AAE0B0E00E94DE00E1B73C
:1001B000E150E1BFEF5FF4CFE7CFFFCF109639F00A
:1001C00080EA9FE00197F1F7A8951197C9F7089584
:00000001FF
