:0A0000000C9446000C9400000C94D0
:10000A0000000C9400000C9400000C9400000C9466
:10001A0000000C9400000C9400000C9400000C9456
:10002A0000000C9400000C9400000C9400000C9446
:10003A0000000C9400000C9400000C9400000C9436
:10004A0000000C9400000C9400000C9400000C9426
:10005A0000000C9400000C9400000C9400000C9416
:10006A0000000C9400000C9400000C9400000C9406
:10007A0000000C9400000C9400000C9400000C94F6
:10008A000000F894EE27ECBBF1E0F5BFE5BFE09382
:10009A006C008DE0A2E0BB27ED938A95E9F780E03A
:1000AA0090E1A0E0B1E0ED930197E9F78BBFEFEFA4
:1000BA00EDBFE0E1EEBFC0E0D5E00C94640011E0D2
:1000CA00EFEFEABB1BBBA8EEB3E00E947300110F6F
:1000DA001F70183009F411E0F5CFFFCF109639F0F0
:1000EA0080EA9FE00197F1F7A8951197C9F708955B
:00000001FF
