:0C0000000C9446000C9400000C940000CE
:10000C000C9400000C9400000C9400000C94000064
:10001C000C9400000C9400000C9400000C94000054
:10002C000C9400000C9467000C9400000C94640079
:10003C000C9400000C9400000C9400000C94000034
:10004C000C9400000C9400000C9400000C94000024
:10005C000C9400000C9400000C9400000C94000014
:10006C000C9400000C9400000C9400000C94000004
:10007C000C9400000C9400000C9400000C940000F4
:10008C00F894EE27ECBBF1E0F5BFE5BFE0936C0014
:10009C008DE0A2E0BB27ED938A95E9F780E090E133
:1000AC00A0E0B1E0ED930197E9F78BBFEFEFEDBF67
:1000BC00E0E1EEBFC0E0D5E00C946C00EA93E1E027
:1000CC0002C0EA93E0E0EBBBE99118951DD0E0E0AB
:1000DC00F0E0FBBDEABD7894EAB5FBB5EF3FAFEFBE
:1000EC00FA0730F468D03196FBBDEABD31970AC0EF
:1000FC00EAB5FBB50E94F20028F45DD03197FBBD48
:10010C00EABD3196E9CFFFCFE0E0EABBEBBBE7BB42
:10011C00E8BBE4BBE5BBE1BBE2BBE2B9E3B9E0930E
:10012C006100E0936200E0936400E0936500E0BF3F
:10013C00E3BFE2BFE1BFEFBDEAE1EEBDE0E0EDBD44
:10014C00ECBDE7BDE6BDEBBDEABDE9BDE8BDE093A6
:10015C007900E0937800E5BDE4BDE3BDE0938B004E
:10016C00E0938A00E0938900E0938800E09381009B
:10017C00E0938000E0938700E0938600E093850095
:10018C00E0938400E0938300E0938200E4E1E7BF16
:10019C00E0E0E0937D00E0936A00EABFE9BFEAB9D2
:1001AC00E0939A00E0E8E8B9E0E0E0BDE6B9EDB92B
:1001BC00E09374000895A2E3B0E00E94E800EAB571
:1001CC00FBB50895109639F080EA9FE00197F1F79E
:1001DC00A8951197C9F7089500240E160F060895D7
:00000001FF
