:100000000C9452000C9400000C9400000C9400001E
:100010000C9400000C9400000C9400000C94000060
:100020000C9400000C9400000C9400000C94000050
:100030000C9400000C9400000C9400000C94000040
:100040000C9400000C9400000C9400000C94000030
:100050000C9400000C9400000C9400000C94000020
:100060000C9400000C9400000C9400000C94000010
:100070000C9400000C9400000C9400000C94000000
:100080000C9400000C9400000C94000048656C6C0B
:100090006F2100776F726C64210080C00200000540
:1000A0009A000000F894EE27ECBBF1E0F5BFE5BF45
:1000B000E0936C008DE0A2E0BB27ED938A95E9F711
:1000C00080E090E1A0E0B1E0ED930197E9F7ECE981
:1000D000F0E085919591009761F0A591B59105901B
:1000E0001590BF01F00105900D920197E1F7FB011A
:1000F000F0CF8BBFEFEFEDBFE0E1EEBFC0E0D5E0AA
:100100000C948200E0E0EABBEBBBE7BBE8BBE4BBDE
:10011000E5BBE1BBE2BBE2B9E3B9E0936100E09388
:100120006200E0936400E0936500E0BFE3BFE2BFDC
:10013000E1BFEFBDEEBDEDBDECBDE7BDE6BDEBBD86
:10014000EABDE9BDE8BDE0937900E0937800E5BD44
:10015000E4BDE3BDE0938B00E0938A00E093890067
:10016000E0938800E0938100E0938000E0938700B3
:10017000E0938600E0938500E0938400E0938300A1
:10018000E0938200E7BFE0937D00E0936A00EABF5E
:10019000E9BFEAB9E0939A00E0E8E8B9E0E0E0BD41
:1001A000E6B9EDB9E0937400A0E171D03ED0E2E091
:1001B000EA93A0E02DD0ACE8B0E056D0E2E0EA93BC
:1001C000A1E026D0A3E9B0E04FD0FFCFFFCFAA93A4
:1001D000E2B3EF70AE2FE881E07FEA2BE2BB8BE168
:1001E0008A95F1F7929A8BE18A95F1F792988BE1D3
:1001F0008A95F1F775C0AA93A881E9DFE881E295B5
:10020000E883A881E4DF88EC90E00197F1F768C00B
:10021000AA93E881F0E0E050FB4FE081A981AE0FA6
:10022000EADF5980488022960895A2E05BD0ACE0D6
:10023000E2DFA1E057D0E0E04E2E5E2E0895AA93B3
:10024000A881AA3011F0571448F0E0E0EA934394F3
:10025000A42DDEDFA881AA3009F442C05394909AFD
:10026000A881C9DF90983CC0BA93AA931A93E981F8
:10027000FA813196E983FA833197E4911E2FE030B9
:1002800019F0A12FDCDFF3CF188123960895AA93EC
:10029000E1B3E06FE1BB8A9A889A899A9298909824
:1002A00091987880E881E058E0930205E881E05475
:1002B000E0930305A4E1B0E00E947E0118D017D0BE
:1002C00016D0A0E284DF80E991E00197F1F7A8E27F
:1002D00092DFA4E090DFA5E88EDFA6E08CDFA5DF4B
:1002E0002196089588DFA3E0B0E00C947E01A0E39E
:1002F0006EDF80E991E00197F1F70895109639F0EB
:1003000080EA9FE00197F1F7A8951197C9F7089542
:00000001FF
