:080000000C9453000C94000065
:100008000C9400000C9400000C9400000C94000068
:100018000C9400000C9400000C9400000C94000058
:100028000C9400000C9400000C9400000C94000048
:100038000C9400000C9489000C9483000C9400002C
:100048000C9400000C9400000C9400000C94000028
:100058000C9400000C9400000C9400000C94000018
:100068000C9400000C9400000C9400000C94000008
:100078000C9400000C9400000C9400000C940000F8
:100088000C940000000000000000000000000100C7
:100098000A0004008C000100000596000000F89496
:1000A800EE27ECBBF1E0F5BFE5BFE0936C008DE017
:1000B800A2E0BB27ED938A95E9F780E090E1A0E004
:1000C800B1E0ED930197E9F7E8E9F0E085919591C2
:1000D800009761F0A591B59105901590BF01F001C9
:1000E80005900D920197E1F7FB01F0CF8BBFEFEF81
:1000F800EDBFE0E1EEBFC0E0D5E00C949A00AA9312
:10010800EA93EFB7EA9300D10BC0AA93EA93EFB74B
:10011800EA93EBB3AE2FE09100050E949701EA2322
:10012800EBBBE991EFBFE991A991189595D0EFEF55
:10013800E1BFE0910005EBBB7894CB9907C0E1E003
:10014800F0E02F01A4E6B0E00E948D01CC9907C031
:10015800E2E0F0E02F01A4E6B0E00E948D01CD9925
:1001680012C0062C072829F4E1E0F0E04F013F0116
:1001780004C08824992466247724EFEFEBBBA4EF0E
:10018800B1E00E948D01F201E130A0E0FA07F1F43C
:10019800082C092899F4A0910005A83018F0E0E08F
:1001A800E0930005E0910005EF5FE0930005ACD017
:1001B800EBBBA4EFB1E00E948D0107C0E1E0F0E0E5
:1001C800E815F90511F4EBB3EBBB44C0E230A0E04D
:1001D800FA0709F03FC0082C0928D1F50A2C0B288A
:1001E80039F4E0E0E1BFE1E0F0E05F01E093000511
:1001F8000C2C0D2819F4E1B7EF5F07C0E1E0F0E03F
:10020800EC15FD0539F4E1B7E150E1BFAAE0B0E033
:100218000E948D01E1B7EF3F19F4E1E0F0E06F01D2
:10022800E1B7E03089F4CC24DD24E0910005EE0F3D
:10023800E0930005EF70E0930005A0910005A83059
:1002480019F4E1E0E09300055FD0EBBBEBBB02C023
:10025800E1B7E1BF72CFFFCFE7E0EABBE0E0EBBB7D
:10026800E7BBE8BBE4BBE5BBE1BBE2BBE2B9E3B992
:10027800E0936100E0936200E0936400E09365001E
:10028800E0BFEAE4E3BFE0E0E2BFE1BFEFBDEEBDFF
:10029800EDBDECBDE7BDE6BDEBBDEABDE9BDE8BD22
:1002A800E0937900E0937800E5BDE4BDE3BDE09319
:1002B8008B00E0938A00E0938900E0938800E09344
:1002C8008100E0938000E0938700E0938600E0934C
:1002D8008500E0938400E0938300E0938200E3E0EC
:1002E800E7BFE0E0E0937D00E0936A00EABFE9BF82
:1002F800EAB9E0939A00E0E8E8B9E0E0E0BDE6B9E1
:10030800EDB9E09374000895EBB3A0910005EA2BD2
:100318000895109639F080EA9FE00197F1F7A895C3
:100328001197C9F70895EE23E1E009F0EE27089543
:00000001FF
